:020000040800F2
:1000000000500020F50200083D0300083D030008F1
:100010003D0300083D0300083D0300080000000008
:100020000000000000000000000000003D03000888
:100030003D030008000000003D0300083D030008E8
:100040003D0300083D0300083D0300083D03000890
:100050003D0300083D0300083D0300083D03000880
:100060003D0300083D0300083D0300083D03000870
:100070003D0300083D0300083D0300083D03000860
:100080003D0300083D0300083D0300083D03000850
:100090003D0300083D0300083D0300083D03000840
:1000A0003D0300083D0300083D0300083D03000830
:1000B0003D0300083D0300083D0300083D03000820
:1000C0003D0300083D0300083D0300083D03000810
:1000D0003D0300083D0300083D0300083D03000800
:1000E0003D0300083D0300083D0300080000000038
:1000F0000000000000000000000000000000000000
:0C01000000000000000000005FF808F1A3
:10010C00044B05481B1A062B02D9044B03B11847A4
:10011C00704700BF0300002000000020000000001A
:10012C0005490648091A891001EBD171491002D012
:10013C00034B03B11847704700000020000000205B
:10014C000000000010B5064C237843B9FFF7D8FF28
:10015C00044B13B10448AFF300800123237010BD8E
:10016C0000000020000000008C03000808B5084BBC
:10017C001BB108480849AFF300800848036813B95D
:10018C00BDE80840CCE7064B002BF9D09847F7E7C1
:10019C00000000008C030008040000200000002078
:1001AC000000000080B400AF154A154B1B6843F0EB
:1001BC00010313601249124B5A68124B13404B60E7
:1001CC000F4A0F4B1B6823F0847323F480331360A6
:1001DC000B4A0B4B1B6823F480231360084A084B13
:1001EC005B6823F4FE035360054B4FF41F029A60C7
:1001FC00054B4FF000629A60BD465DF8047B70477A
:10020C00001002400000FFF800ED00E080B483B065
:10021C0000AF00237B6002E07B6801337B607B686E
:10022C00034A9342F8DD0C37BD465DF8047B7047FA
:10023C007FFC0A0080B584B000AF0D23FB604FF645
:10024C00FF73BB6000237B600348F96800F032F851
:10025C00FFF7DCFFF1E700BF0010014080B483B072
:10026C0000AF786039607B68DB6801213A6801FA7D
:10027C0002F21A437B68DA600C37BD465DF8047BEA
:10028C00704700BF80B483B000AF786039607B6882
:10029C00DB6801213A6801FA02F2002A0CBF012244
:1002AC000022D2B21A407B68DA600C37BD465DF88A
:1002BC00047B704780B582B000AF786039607B6892
:1002CC00DB6801213A6801FA02F21340002B04D1D9
:1002DC0078683968FFF7C2FF03E078683968FFF780
:1002EC00D1FF0837BD4680BD002103E00B4B5B58A6
:1002FC00435004310A480B4B42189A42F6D30A4A2F
:10030C0002E0002342F8043B084B9A42F9D3FFF772
:10031C0049FF00F00FF8FFF78DFF7047AC030008A2
:10032C000000002000000020000000201C00002025
:10033C00FEE700000E4B70B51E460E4C0025E41A6D
:10034C00A410A54204D056F8253098470135F8E79B
:10035C0000F016F8084B094C1E46E41AA4100025B0
:10036C00A54204D056F8253098470135F8E770BD02
:10037C00A4030008A4030008A4030008A8030008B1
:10038C00F8B500BFF8BC08BC9E467047F8B500BF76
:08039C00F8BC08BC9E46704746
:0403A40079010008D3
:0403A80051010008F7
:04000005080002F5F8
:00000001FF
